:020000040800F2
:1000000000500020E9030008390400083904000802
:100010003904000839040008390400080000000011
:10002000000000000000000000000000390400088B
:1000300039040008000000003904000839040008F1
:10004000390400083904000839040008390400089C
:1000500039040008390400080503000839040008C1
:10006000390400083904000839040008390400087C
:10007000390400083904000839040008390400086C
:10008000390400083904000839040008390400085C
:10009000390400083904000839040008390400084C
:1000A000390400083904000839040008390400083C
:1000B000390400083904000839040008390400082C
:1000C000390400083904000839040008390400081C
:1000D000390400083904000839040008390400080C
:1000E0003904000839040008000000003904000841
:1000F00039040008390400083904000839040008EC
:1001000039040008390400083904000839040008DB
:1001100039040008390400083904000839040008CB
:1001200039040008390400083904000839040008BB
:1001300010B5054C237833B9044B13B10448AFF321
:1001400000800123237010BD00000020000000008B
:100150008404000808B5034B1BB103490348AFF3FF
:10016000008008BD00000000040000208404000896
:1001700080B483B000AF0346FB7197F90730002BC2
:100180000BDBFB7903F01F02064997F907305B0987
:10019000012000FA02F241F8232000BF0C37BD46CF
:1001A00080BC704700E100E080B483B000AF03463C
:1001B000FB7197F90730002B0CDBFB7903F01F0272
:1001C000074997F907305B09012000FA02F2603312
:1001D00041F8232000BF0C37BD4680BC704700BFEC
:1001E00000E100E080B483B000AF03463960FB71EA
:1001F00097F90730002B0ADB3B68DAB20C4997F914
:1002000007301201D2B20B4483F800230AE03B68A6
:10021000DAB20849FB7903F00F03043B1201D2B2B2
:100220000B441A7600BF0C37BD4680BC704700BF38
:1002300000E100E000ED00E080B500AF00F07AF8EA
:1002400000F038F800F002F8FEE7000080B500AFDB
:10025000154B9B69144A43F001039361134B9B6850
:10026000124A23F00F039360104B104A9B6893606F
:100270000F4B1B680E4A43F0010313600C4B9B6845
:100280000B4A43F001039360094BDB68084A23F0F3
:100290000103D36001210620FFF7A4FF0620FFF72A
:1002A00067FF00BF80BD00BF00100240000001409A
:1002B0000004014080B400AF104B9B690F4A43F02B
:1002C000040393610E4B1B680D4A23F0F003136087
:1002D0000B4B1B680A4A43F030031360084B1B6842
:1002E000074A23F00F031360054B1B68044A43F0D1
:1002F0000403136000BFBD4680BC7047001002407D
:100300000008014080B500AF0620FFF74DFF074B06
:100310005B69064A43F001035361054BDB68044AFD
:1003200083F00203D36000BF80BD00BF0004014022
:100330000008014080B400AF264B1B68254A43F4F7
:100340008033136000BF234B1B6803F40033002B82
:10035000F9D0204B1B681F4A03F0807313601E4BBB
:100360001B681D4A23F0070313601B4B1B681A4AC6
:1003700043F001031360184B1B68174A43F0100346
:100380001360144B5B68134A23F003035360114B53
:100390005B68104A43F0010353600E4B5B680D4AE3
:1003A00023F0F00353600B4B5B680A4A23F4E063CD
:1003B0005360084B5B68074A43F480635360054B06
:1003C0005B68044A23F46053536000BFBD4680BCA1
:1003D000704700BF001002400020024080B400AF10
:1003E00000BFBD4680BC70470D488546FFF7F6FF4D
:1003F0000C480D490D4A002302E0D458C450043380
:10040000C4188C42F9D30A4A0A4C002301E0136055
:100410000432A242FBD300F011F8FFF70DFFFEE714
:10042000005000200000002000000020A40400086C
:10043000000000201C000020FEE7000070B5002630
:100440000C4D0D4C641BA410A64209D100F01AF803
:1004500000260A4D0A4C641BA410A64205D170BDAB
:1004600055F8043B98470136EEE755F8043B9847AA
:100470000136F2E79C0400089C0400089C04000874
:10048000A0040008F8B500BFF8BC08BC9E46704741
:0C049000F8B500BFF8BC08BC9E467047E1
:04049C0055010008FE
:0404A000310100081E
:04000005080003E903
:00000001FF
