:020000040800F2
:1000000000500020BD0200080D0300080D03000889
:100010000D0300080D0300080D0300080000000098
:100020000000000000000000000000000D030008B8
:100030000D030008000000000D0300080D03000878
:100040000D0300080D0300080D0300080D03000850
:100050000D0300080D0300080D0300080D03000840
:100060000D0300080D0300080D0300080D03000830
:100070000D0300080D0300080D0300080D03000820
:100080000D0300080D0300080D0300080D03000810
:100090000D0300080D0300080D0300080D03000800
:1000A0000D0300080D0300080D0300080D030008F0
:1000B0000D0300080D0300080D0300080D030008E0
:1000C0000D0300080D0300080D0300080D030008D0
:1000D0000D0300080D0300080D0300080D030008C0
:1000E0000D0300080D030008000000000D030008C8
:1000F0000D0300080D0300080D0300080D030008A0
:100100000D0300080D0300080D0300080D0300088F
:100110000D0300080D0300080D0300080D0300087F
:100120000D0300080D0300080D0300080D0300086F
:1001300010B5054C237833B9044B13B10448AFF321
:1001400000800123237010BD00000020000000008B
:100150005803000808B5034B1BB103490348AFF32C
:10016000008008BD000000000400002058030008C3
:1001700080B500AF00F048F800F018F80A4B9B6813
:10018000DB4303F00203002B06D0074BDB68064A73
:1001900043F00103D360F1E7034BDB68024A23F02D
:1001A0000103D360EAE700BF0008014080B400AF5C
:1001B000134B9B69124A43F004039361114B1B6874
:1001C000104A23F00F0313600E4B1B680D4A43F0D7
:1001D000030313600B4B1B680A4A23F0F003136000
:1001E000084B1B68074A43F080031360054BDB682C
:1001F000044A43F00203D36000BFBD4680BC704791
:10020000001002400008014080B400AF264B1B687C
:10021000254A43F48033136000BF234B1B6803F46B
:100220000033002BF9D0204B1B681F4A03F080736A
:1002300013601E4B1B681D4A23F0070313601B4B02
:100240001B681A4A43F001031360184B1B68174AD6
:1002500043F010031360144B5B68134A23F003034D
:100260005360114B5B68104A43F0010353600E4B1F
:100270005B680D4A23F0F00353600B4B5B680A4A3E
:1002800023F4E0635360084B5B68074A43F48063E0
:100290005360054B5B68044A23F46053536000BF0E
:1002A000BD4680BC704700BF0010024000200240E5
:1002B00080B400AF00BFBD4680BC70470D48854686
:1002C000FFF7F6FF0C480D490D4A002302E0D45811
:1002D000C4500433C4188C42F9D30A4A0A4C002390
:1002E00001E013600432A242FBD300F011F8FFF7E3
:1002F0003FFFFEE70050002000000020000000202B
:1003000078030008000000201C000020FEE7000029
:1003100070B500260C4D0D4C641BA410A64209D1EB
:1003200000F01AF800260A4D0A4C641BA410A642DD
:1003300005D170BD55F8043B98470136EEE755F8F6
:10034000043B98470136F2E7700300087003000889
:100350007003000874030008F8B500BFF8BC08BCBF
:100360009E467047F8B500BFF8BC08BC9E46704773
:04037000550100082B
:04037400310100084B
:04000005080002BD30
:00000001FF
