:020000040800F2
:10000000005000200D0300085D0300085D03000898
:100010005D0300085D0300085D03000800000000A8
:100020000000000000000000000000005D03000868
:100030005D030008000000005D0300085D03000888
:100040005D0300085D0300085D0300085D03000810
:100050005D0300085D0300085D0300085D03000800
:100060005D0300085D0300085D0300085D030008F0
:100070005D0300085D0300085D0300085D030008E0
:100080005D0300085D0300085D0300085D030008D0
:100090005D0300085D0300085D0300085D030008C0
:1000A0005D0300085D0300085D0300085D030008B0
:1000B0005D0300085D0300085D0300085D030008A0
:1000C0005D0300085D0300085D0300085D03000890
:1000D0005D0300085D0300085D0300085D03000880
:1000E0005D0300085D030008000000005D030008D8
:1000F0005D0300085D0300085D0300085D03000860
:100100005D0300085D0300085D0300085D0300084F
:100110005D0300085D0300085D0300085D0300083F
:100120005D0300085D0300085D0300085D0300082F
:1001300010B5054C237833B9044B13B10448AFF321
:1001400000800123237010BD00000020000000008B
:10015000A803000808B5034B1BB103490348AFF3DC
:10016000008008BD0000000004000020A803000873
:1001700080B500AF00F070F800F012F84FF4FA50BC
:1001800000F02AF8054BDB68044A83F00103D360D2
:100190004FF47A7000F03CF8F4E700BF000801402B
:1001A00080B400AF0A4B9B69094A43F00403936192
:1001B000084B1B68074A23F00F031360054B1B68AD
:1001C000044A43F00303136000BFBD4680BC704780
:1001D000001002400008014080B483B000AF786096
:1001E0000A4B00221A60094A7B68013B5360074BA7
:1001F00000229A60054B1B68044A43F00503136014
:1002000000BF0C37BD4680BC704700BF10E000E067
:1002100080B485B000AF78600023FB6010E000BFC1
:100220000C4B1B68DB4303F48033002BF8D1094BE4
:100230001B68084A23F480331360FB680133FB60BA
:10024000FB687A689A42EAD800BF00BF1437BD46FF
:1002500080BC704710E000E080B400AF264B1B6804
:10026000254A43F48033136000BF234B1B6803F41B
:100270000033002BF9D0204B1B681F4A03F080731A
:1002800013601E4B1B681D4A23F0070313601B4BB2
:100290001B681A4A43F001031360184B1B68174A86
:1002A00043F010031360144B5B68134A23F00303FD
:1002B0005360114B5B68104A43F0010353600E4BCF
:1002C0005B680D4A23F0F00353600B4B5B680A4AEE
:1002D00023F4E0635360084B5B68074A43F4806390
:1002E0005360054B5B68044A23F46053536000BFBE
:1002F000BD4680BC704700BF001002400020024095
:1003000080B400AF00BFBD4680BC70470D48854635
:10031000FFF7F6FF0C480D490D4A002302E0D458C0
:10032000C4500433C4188C42F9D30A4A0A4C00233F
:1003300001E013600432A242FBD300F011F8FFF792
:1003400017FFFEE700500020000000200000002002
:10035000C8030008000000201C000020FEE7000089
:1003600070B500260C4D0D4C641BA410A64209D19B
:1003700000F01AF800260A4D0A4C641BA410A6428D
:1003800005D170BD55F8043B98470136EEE755F8A6
:10039000043B98470136F2E7C0030008C003000899
:1003A000C0030008C4030008F8B500BFF8BC08BCCF
:1003B0009E467047F8B500BFF8BC08BC9E46704723
:0403C00055010008DB
:0403C40031010008FB
:040000050800030DDF
:00000001FF
